:20000000003A0120C51E020039FB021039FB021039FB021039FB021039FB021039FB0210FC
:1C00200039FB021039FB021039FB021039FB021039FB021039FB021011FB021002
:200040002DE9F04FBB4CBC4E05460120ADF1540DAF7894F83EC031780E902878452835DCB9
:20006000452800F09E86092816DC092801F01B83002801F09383801E01F07D83401E01F00F
:20008000E983401E01F0E283C01E01F06983401E01F0128301F092BBDFF8A0C2DFF8A08231
:2000A000DFF8A0E210381C283AD92A3800F0D686401E01F0BB83401E01F0B483401F00F038
:2000C000A286801E00F08E8601F078BBE42816DCE42801F07583A038212840D92D3801F0AF
:2000E0007983401E00F0BE83093800F02982401E00F0F280093801F0678301F05FBBE63894
:2001000000F0CE80401F00F0A080AB4A0E3800F08280401E4CD0401E45D0401E01F04EBBC0
:20012000DFE810F0B70A7C0A610A4C0B8F0B490A3A0A4C0B180AF8094C0BC2098F094C0B33
:200140008B0B880BC6089B08C3074C0BAB0799079007850775074C0B65075F07FC06DFE801
:2001600010F05D0B590B550B1A06510B4D0B490B1606430BFA05BC058D0563055105440568
:2001800037052D0525051D053E0B1205F604CE04950470046304ED03E103D6032D0B2D0BE8
:2001A0002D0BA9038B036868002800F02D8546E06868002800F028851146097831F001017D
:2001C0003DD10488466802208DF820003146ADF8224009A829F029FA08A815F073FC012858
:2001E00015D14FF6FE70A0420BD0304628F06FF828B9002120460A4625F0DEFC08E0002005
:2002000006E0002130460A4620F0B6FF00E00E980F95139059E16968A1B11046007830F034
:2002200001000CD1084600218DF820100990022108A88DF821101DF063FA01F0D2B9122082
:2002400000F0FEBE0F9500F0DFBC6868007878B9002027F0CFFA26F02BFC0E980DA98DF82C
:200260003400522024F0D4FE27F0E2FE01F0F6BA4FF6FF7027F0BEFA30784FF4807121F0EA
:2002800045FD30784FF4807120F0AAFA00200DF135018DF83500522024F0BAFE01F0DEBAB7
:2002A0006868002801F0DA82A44C01886180807A60B929F022FB40F28A21B0FBF1F2207853
:2002C0000821521D29F083FB01F0C8BA708F0E9928F050FB01F0C2BA68680F95002800F07A
:2002E000938400681090807E27F06EFB061C00F0B4821098C76900252C464FF003093878AF
:20030000A04200F303810F2410FB04F0401CC0B240191CF0F9F85FEA000800F09C8223F0BC
:2003200063FF002840F0F0800025139588F8005053E0C046C0530020784E0020DC51002057
:2003400000590020D85900201099032315FB03F6BA1991F81AA0B1F80C9052880F2015FB87
:2003600000845046494625F011F9BA195288834608AB504623F0BAF8641CBBF1FF0F1DD00A
:20038000E0B1A6489DF827300168D80838BF8C2015D39DF826001623207103FB0B10C18837
:2003A00000F10E02A4F805100189C4F80B201398A4F8071003E0C04691520020862020709A
:2003C000B8194078BB1960705888608098F800006D1CEDB2401C88F800003878A842B3DC73
:2003E0001098817E474600F10E064FF00F0985893A78109190F80AA01196139912950C468E
:200400008A4264DC204629F083FB061C58D0139D02463EE015FB09F0391838184078491CAC
:2004200002F8010B487802F8010B887802F8010B4888001202F8010B0B7843BB4B78F3B912
:20044000087902F8010B487902F8010BB1F80500001202F8010BC87902F8010BB1F8070091
:20046000001202F8010B0879834628F0FAFA70B1D1F80B10584617F0C9F8024607E0487AB2
:2004800002F8010BB1F80900001202F8010B6D1CEDB23878A842BDDC139900910E980190BD
:2004A00002900391CDF810A00594129A069610980791119909230FF0FDFB304629F068FAC2
:2004C000384624F005F928F031F91398C6E111FB09F3F818FB185E78241DA4B2401C86B9C5
:2004E000467866B90079834628F0BBFA641DA4B238B158461CF037FA001984B201E0A41C85
:20050000A4B2491CC9B27BE74046A2E114FB0972109930785288898908AB22F0E7FF50B1C7
:200520009DF82600014628F09CFA20B108461CF01AFA2D18EDB2641CE4B2E0E69C570020F9
:2005400068680F95002800F05F8300681090807E27F03AFA002800F080811098D0F81C80B7
:2005600098F80000002800F078818000401C1BF0CBFF0028119000F06E8128F0D7FF23F080
:2005800033FE002840F0648100261396129698F80000B04200F3E4801398012840F08C808D
:2005A000C34DA878EA68162111FB00F081B2562029F060F905F10C0640B9A8783268162179
:2005C00011FB00F081B2562029F05AF96078802121F09CFB2F78B8001BF096FFB8465FEAA3
:2005E000000B69D02E78B8F1000F0CD005F11800594642784A70428810F8144B4A807F1EC4
:2006000001F8044BF5D1002E3CD037464FF000094FF0140AA6B305F1180411E0EC600020A8
:20062000002808BF4E4607D041680668216124F04FF8207B401E2073304624F049F82E786F
:2006400020690028ECD1761EF6B216FB0AF2A0184188618041786170C188E1808188A18023
:2006600001890C30218109C804F10C0181E80900105D2070A318C3F8109083F80C902E7005
:200680007F1EC7D10FF046FAB8F1000F11D018355C4647466078618825F0A8FAFF2804D05E
:2006A0002678810001EB00116E547F1E04F10404F0D1584624F00CF812981199087018B9AE
:2006C000002048700E9F0F70109890F81AA00C4600F10E098689857A2078042110FB01F00B
:2006E000804629F015FA071C1ED0014600202278824222DC012A03D164780CB9DDF838800B
:20070000002000900E9901910291039004953246CDF81480072306974946079050460FF0DE
:20072000C9FA384629F034F9119823F0D1FF27F0FDFF25F00BFF002090E08200A3185B78D4
:200740000B70A3189B784B70A318DB78A2188B70B2F80320401CC0B21212CA70091DC6E706
:20076000109B9F890E2016FB00856D1C93F81AA0B5F80190394650464A4624F007FF83464E
:2007800008AB504622F0B2FEBBF1FF0F48D0002846D02F78002F58D19DF82600E978884259
:2007A0003CD19DF82700C00836D3B7480168A8884FF6FF72824201D1EF88B7B1162202FBA7
:2007C0000B17F880E8883881E87828F04AF900B30E370021042238461DF086FDE8781CF0E2
:2007E000C2F8D5F80A10024610E0162000FB0B156889E880A889042205F10E07002128814A
:2008000038461DF071FD042205F11201384628F089F90E98139018E08C2002E08D2000E03C
:200820008720129BDDF844C099000CEB0102507028780CEB01075B1CB8700CEB0102DFB26F
:200840001297B5F80110A2F80310761CF6B29EE6119823F03DFF102000E002200F9D2C467E
:2008600000F0F6BC6868002800F0CE816868006825F0D6F900F0B5BE6868002800F0C481F3
:20088000002069686870097851B984F84200607F401E60770E98014625F070FE00F0DEBF35
:2008A00028F0B8FF0E98014608F0E0FA00F0D6BFE06000206868002800F0A6810678476889
:2008C0000021082208A81DF00FFDE7B1CC4800210170AEB1761E0ED0761E0AD0761E03D020
:2008E000761E10D10E990170384608A918F0AAFE0AE00E990170384608A923F0C9FF03E09D
:2009000022F060FA00E002202C4606467DE06868002800F07981686800F1120123F0B8FFCE
:2009200000F05FBE6868002800F06E816A6810785188928817F01CF800F053BE2C46606830
:20094000002800F0618190F8009045888188B0F806B0B0F808A00A301090C74807790F91F8
:20096000002F5ED0C3490F68002F57D080467868007881454FD127F0B9FF00284BD0037CAC
:20098000002B48D04669002E45D000200C22834244DD10FB02F1715A8D4239D10E201BF013
:2009A000B3FD071C3DD0002607F10A0004235B1E00F8016BFBD1BE80FF2038704FF6FF73A3
:2009C0007B803E81FE8087F800900F9A7D801099BA8007F10A00A7F806B00422A7F808A083
:2009E00028F0A0F808201BF08FFDD8F8141018B9384623F06DFE14E007604160C8F81400F7
:200A000098F81000401C88F81000304600F020BC401CC0B2BBE73F68002FA8D1022000F037
:200A200017BC0E9800F014BC6868002800F0EC800020687068681EF01BFEA968088000F0B1
:200A40000DBFA868002800F0DF8000216970AD68267860786F1C002E08BF29700ED0402166
:200A600023F016FE4FF47A710F2300F2E730B0FBF1F116FB03100F3828702678002F00F099
:200A8000ED86304687E0C046EC600020AF68208F94F83B1094F83A2094F83C30666B94F8BC
:200AA0003DE094F83F8094F8409094F841A094F842B0002F00F0A88000276F70AF6838816A
:200AC000A868C172A8688272A8680373A86880F80EC0A8684660A86880F80DE0206BA9682C
:200AE0000860A86880F80F80A86880F81090A86880F811A0A86880F812B000F0AFBE6F6898
:200B0000002F00F08180002068706868077D17B1C07C84F841006868877D17B1417D84F8D2
:200B20004210077C17B1C08920876868077B17B1806860636868877C1FB1407C84F83D004B
:200B4000686807790FB10068206300F087BE0021BCF1000F69700ED094F83B0080090AD2A5
:200B600008A808221DF0C0FB28F00DFC08A81BF0B5FE00F073BE28F006FC4FF4FA7027F045
:200B800047FA00F06BBEA86800283DD00020687028F094FEAF68387000F060BEAE48A96840
:200BA0000078002930D000216970F3E7686858B36868007822F06AFB00F013BD686818B3CB
:200BC000002068706868007806F0A2FB00F046BEA868C8B10020687022F0EEFE002808BFE0
:200BE0000E9800F02D820078D4E7686860B10020687069680888897821F040FD00F02EBE18
:200C000038520020686808B9022019E2C24C6968082204F10C0027F085FF6868018961809C
:200C2000807A207000200BE26868002800F090800188ADF830104088ADF832000CA95320F0
:200C400024F0E6F950200DF1320124F0E1F9E1200DF1360126F044FC68689DF83610007962
:200C6000884273D08DF836000DF13601E12024F0CFF96BE00C590020E06000206868002872
:200C800066D0007824F0E2FE686896F83C104078884213D086F83C000DF13701E12026F09C
:200CA0001FFC68689DF837104078884206D08DF837000DF13701E12024F0AAF968680E9FEE
:200CC000407807FA00F0F06427F0CEFC0024A6F89440384621F07AF93BE06F68C7B37C882E
:200CE0007487387886F84A007B6886F83C303989F187F3647889A6F84800387B86F85C00AF
:200D0000787B86F82900B87B86F827003A697265786996F89640B065387EA04201D024F010
:200D200095FE696806F15D00193128F071FE96F84A0006F12404082808D1212074212246EC
:200D400028F09EFD0020022124F0C4FD002400E002242046A7E169680029F9D0088849888C
:200D600025F0B0F870B9696808880E9A498823F007FB69680888498825F0A4F8002808BFCC
:200D8000C824E6D069680979417000208BE168680028DDD003E06868002800F0838112207B
:200DA00081E16868002800F07D810A300778002F0CBF00220E9A47780FB142F002028778BA
:200DC0000FB142F00402C7780FB142F00802007908B142F04002696808880023891C24F0FD
:200DE00081FBFEE36868002800F05C8102206F688DF828003988ADF82010FA78B97808A842
:200E000021F034F8EDE36868002800F04B8102218DF8281001884FF6FF70884205D0821EB5
:200E20008A4202D0C01E88420BD128F07BFCADF820006868C27A837A811C08A823F090F94A
:200E4000687068680188ADF82010C27A837A811C08A823F085F9C4E3DC5600206C68002C7C
:200E600000F0208102208DF828002188ADF8201063462279B4F80680267AD4F80CB0277C53
:200E8000D4F814A061880F921A1D14680346F21912FB03F00F305FFA80F9B9F14E0F00F336
:200EA0009E8028F03FFC884233D121700812607027F0FCFDA41C0146204628F0A9FD0446F3
:200EC0000F98207084F801804FEA2823A370E670241D66B15846A41E017804F8021F30F87B
:200EE000021B761E4FEA21216170F5D1A41C27705FB1641E5046017804F8021F30F8021BD5
:200F00007F1E4FEA21216170F5D1C64820224B4661E01846C7E0C046305300206C68002C52
:200F200000F0C08002218DF828102088E146ADF820006288A388A679D4F80880277BD4F817
:200F400010E0D9F80400F41914FB01F1891D5FFA81FCBCF14E0F42DC9DF828100F2918BF3E
:200F6000022908D1BDF820404FF6FF71A14204BF891EADF820104FF6FF71914208BF8A1E8A
:200F800000F8012B111200F8011B00F8013B1C1200F8014B00F8016B66B14146801E0A782E
:200FA00000F8022F31F8022B761E4FEA22224270F5D1801C07705FB1401E71460A7800F877
:200FC000022F31F8022B7F1E4FEA22224270F5D148460622634608A920F01AFC63E010204F
:200FE00061E0686800285DD00220052214E06868002857D002206F688DF828003988ADF823
:2010000020103A79798808A827F032F818E06868002847D0022002468DF828006868018884
:20102000ADF82010418808A827F048FBD9E26868002837D06A6810889178D27824F0BCFDC4
:20104000044686E6686800282CD06868017A427A20F092F8C5E2686820B341788DF820108D
:2010600081788DF82110007827F044FBD0B10C3008A9022227F056FD87E6696891B1A86867
:2010800080B1087808A926F05DFE6868A968007808709DF82000A96848709DF82100A96867
:2010A000887072E602202C46D5E02C466368002B00F0D080187D27F071FB002800F0CA8075
:2010C0009D691C331F78002F0CBF002002205F780FB140F010009F780FB140F00800DF78AB
:2010E0000FB140F020001F790FB140F040005F790FB140F0800083466068007D28F00EFAA2
:201100005FEA000800F0A6806168887A8DF829008889ADF82A00087802288DF828000CD0DC
:2011200001280AD00F2808D0032809D1891C08A8082227F0F7FC616802E04888ADF82000CF
:201140008F7B002F76D078001BF0DEF9061C08BF102000F0808000216068877B8F4263DCB2
:20116000C18A838CCDF83C80826A13950C2F109190F822901193BDF8208012924CDA4046A1
:2011800020F0BCFA0C2816D14FF6FE7020F0B6FA0C2810D1DFF808C30E999CF82C3100208C
:2011A0000CF59A7C1CF8082B9342C4BF131C081C491C0C29F6DBBB4D4FF6FE7305EBC00548
:2011C00068686B8018B123F083FA0020686077B14FEA470A50461BF097F96860002808BF79
:2011E00010201AD068683146524627F09BFCA5F80280C7486F70129B0078139F28700F9924
:201200000093109A019708A8CDF808B0119BCDF80C900CF093FE00E002206070304623F0D7
:2012200057FA1BE3DC51002000694A00105A491CB05291E7886A00900195CDF808B091F8F8
:2012400022000390CA8A8B8C08A841460CF076FE254628E702202546C3E16868002800F034
:20126000AB82007827F09AFA071C00F0A582387B21F0C0FF0028687040F0F082404645688C
:20128000002D00F0EB822E46002116B9B74202D0E4E2B74209D1BD4219BF3868086039687C
:2012A0004160384628F06CFBD8E231463668ECE7686800283FF4F6AE007827F06FFA0028FF
:2012C00040F0BD8027F0D6FC052880F2C281002638466E7027F054FA041C01D0207B68B14A
:2012E0001C201BF011F9041C00F0B88231461C221CF0FAFFDDF83890277100E0B1466868BD
:20130000007820736868007A47462076B81C206114201BF0F9F80028606141D03146142229
:201320001CF0E2FF6968626949689079897900F0F00001F00F0101439171686840686169FF
:20134000808888806868406861690078087068684068616940884880686840686169C079FE
:20136000C871686840686169007B08736069C07940001BF0C9F8616988606769B86818B183
:201380003046F979814250DC387B40001BF0BCF8386161690F691FB130460A7B82423ADC44
:2013A00004F10C00804617F03DF80746022F18BFB82F06D1207B21F01DFF404617F032F898
:2013C00007463FB9B9F1010F20D1204624F0FAF8C8B11BE0B9F1010F15D0606968B18368D1
:2013E0001BB1184623F074F9606903691BB1184623F06EF9606923F06BF9404631461022FB
:201400001CF072FF02E0204628F0BAFA022F16D0B82F14D022E26B685B6842001B69096987
:20142000D35A53526169401CB7E76A68526841009268BB688A5ACA526769401CA1E7D02088
:2014400031E66868002800F0B781A868002800F0B381002108221CF047FF6968087849883A
:2014600025F05AFC071C19D00020A968687038880880A968B8788870AC68A078002800F027
:20148000ED811BF041F86060AA685068002800F0E5819278F91C27F045FBDFE1B120A0E00B
:2014A000201B00204C1C00206F68002F2ED0AF6867B30024764668686C703768017820460A
:2014C0003FB13A79914204BF401CC0B23F68002FF7D1A9680870A868007840001BF014F8FF
:2014E000A968376848606868A96800784968002F00F0B4813A79904204D1FA88661C21F8BF
:201500001420F4B23F68002FF4D1A7E154E1C046AA5200206F68E7B16868002774466F7078
:201520000678206890B101798E420BD1002F04BF0568256002D001683960056823F0C8F846
:20154000284601E0074600680028ECD11CF094FD84E131E102206F686870002F00F07E819F
:20156000744639787A882068002800F0778100270379994202D1C3889A4204D00746006865
:201580000028F5D16AE107B977460168396023F09FF81CF071FD8DE06868002800F00C818D
:2015A000807800280CBF00220E9A68680E9900881EF0DAFC15E06968002900F0FD80887837
:2015C00028B1C87800280CBF0E99032100E000216A68107908B141F040011088527912F048
:2015E0009DFF68703AE16868002800F0E580696808A80822091D27F095FA032027F00AFB59
:201600006868C07B24F0BEFA6868817B009102788389418808A815F07FFCE2E76868002856
:2016200000F0CA80384627F0ABF8041C13D11C201AF06AFF041C00F0118100211C221CF078
:2016400053FE2771204623F0BDFF20B9204623F03FF8D120C5E7E088824940F00800E0807B
:2016600040F00400E080022028F0BCF87E49032028F0B8F868680168089100798DF8240042
:201680000E9F8DF825708DF8267008A81FF0B4FCA7E76868002800F08F80686800880021FB
:2016A00003F094FCDAE06868002800F08580686800787070002094E76C486F680478002F07
:2016C0007AD0686800212A2269701CF00DFE708F696808806868B6F84870847269688F812E
:2016E000F08F6968C8826868082206F1240707F139010E3027F016FA27F0D8F9014668689E
:201700000822801C27F00EFA6868082207F11C01183027F007FA96F83C10686880F8231020
:201720000E986968524C81F8210021784A0824BF6A6882F824008A0824BF6A6882F82500D6
:20174000CA0824BF6A6882F826000A0924BF6A6882F82700C90924BF696881F828007DE075
:20176000686848B390F90000044626F0B5FFA86800B104709EE76868F0B100200E9F687031
:2017800069680F7069684F7068680226867068680624C470696803230B715FE0686858B1C2
:2017A000407818B1FF20032124F094F827F0C6FF0E9830490860FEE7022012E7122010E739
:2017C00029461CF0E7FF48E000202B496870EF780F7043E0002068701CF056F93EE000207A
:2017E000687025F0AFFA39E008464FF480711FF0FBFE5FE729461EF0C5FE2EE0294613F0AA
:20180000CDF82AE0294618F043FB26E0294627F0A5FE22E0294621F023FB1EE0294620F0F8
:20182000FFFF1AE029461EF071F816E0294619F0FFFA12E027F012FAD3E6294620F0CEF850
:201840000BE03846294606F027FD06E0294606F09FFE02E0294607F091F90E900E9815B0D3
:20186000BDE8F08F09440200A59202005C500020F66600207C052043984D00202DE9F0473E
:2018800004464FF6FE70ADF1600D217AADF85400606808AA13F000FF002800F042849DF8BD
:2018A00022000228B4BF012700279DF824000228A8BF0027BDF82A1000254FF6FE70801F43
:2018C00088420ED04FF6FE70401F884209D04FF6FE70001F884204D04FF6FE70C01E8842E0
:2018E00000D12F4627F018FF9DF82310884240F01884002F00F01584208D9DF82660678EA1
:20190000ADF84C00ADF82E7056B161689DF821209DF83C30012027F04DF9002840F0018491
:201920009DF82570DFF8F8A2DFF8F8821695002F4CD19DF83D002F4658BBBDF82A00034642
:2019400022F066FE3E46022808BF0126002E9DF8226018BF012751460988994208BF47F030
:20196000020727B1002E14BF402120210F43184622F04EFE012808BF47F00107002E3ED06A
:201980001298007827F0C0FC012818BF27F0010735E09DF8411041B1FF2906D09DF8400073
:2019A000119A24F0D5F850B129E0B8F83A00BDF82A10884206D098F84A0004281FD1012001
:2019C00016901CE09DF82660222721E0BDF82A10FF2025F0A1F9002804BF3E1C082708D0F7
:2019E0009DF8250047F001062C2740F001008DF8250006F00306012E08BF47F01107169BCC
:201A00009DF8266007F00200184308BF47F0800796B998F82F0078B107F0220022280BD05D
:201A200007F04200422840F07C8312980078062818BF072840F07583B8111690F80954D3BF
:201A400098F832001299BDF82A2080080AD20878C01E01282AD9001F28D0C01E26D0801EA3
:201A600024D003E00878401E0A281FD9F5B9B8F83A00904240F055830D780520BDF82C404A
:201A80008DF8110004A826F0F3F9002800F049830269032313271370511C0F704C702212F4
:201AA0008A70CD70448009F0EFFC3AE3169840081BD30878032802D148780D2815D09DF859
:201AC000280038B1BDF82C000E990EF08DFA012800F023839DF8270038B1BDF82A000D99FF
:201AE0000EF082FA012800F01583B8F84800B4F84410884208D10095208DB4F8421094F854
:201B000046202B4613F04EFE9DF82600002847D0208DB4F8421024F0D5F99DF85190061C80
:201B200027D1B9F1000F13D198F89000012839D112980078062802D11698400832D2BDF8EB
:201B40002E104FF6FE70401C884240F0A580E8E2042026F0D5F8011C00F0E38264200870DA
:201B600001274F70208D488098F8000021F038FAD7E29DF82130606819184A7BF1788A42A4
:201B800002D0F27075606068C0180421401C26F0ADFB7168814200F2C482401C706001E07C
:201BA0009DF8519098F832008008C0F0BA82B9F1000F0BD0BDF82C0026F06CFF002800F06B
:201BC000B0826168487800F0DF0048709DF8320038B161688879401E8871C0B28DF83200C9
:201BE00008B907F07F07380928D39DF82500F9084FF4805518D279091ED3811011F0070F93
:201C000001F0070604D0072E1CBF761EF6B20EB907F07F0700F0E30040EA8600C0B209E084
:201C2000B24E0020784E002020F01C00C11021F0030108438DF825006168087298F84A007A
:201C4000042800F0F381092800F0F08117F0610F40F0E9809DF82200012811D1129800786E
:201C6000052800F0D98003280AD1BDF82A0026F011FF28B1218D08A815AA002300F0A2FE3A
:201C80009DF8320068B99DF82200012804D112980078032800F0458208A8214620F0C2F9C1
:201CA0003FE226F09BFB002840F03B829DF83D00002870D1FA109DF82400BDF82A101692AD
:201CC0000028ADF854102ED13A0931D29DF82220012A28D0084600211CF0E2FF002620B141
:201CE0004079012816D0022814D0BDF85400B4F8441024F0E7F828B1807826F034F808B146
:201D0000082807DBBDF82C0026F0C4FE18B104208DF824000126BDF82A10002E08BF022233
:201D200074D09DF82400169A520838BF002300D340230DF13D021CF0EDFF30B161680878ED
:201D400045F0200500F03F0008709DF83D0040B1BDF82A1010A822F03BFC45F04005ADF8B0
:201D600054009DF82200012806D0BDF82A00BDF82C10002219F0BCFB169840082CBF402264
:201D80000022BDF82C10BDF82A0016F0AFF908B145F0200533E09DF840009DF84110119A17
:201DA00023F0D6FE00282ED09DF8410038B9BDF82A00ADF8540027F0CBFD00BB1DE0119936
:201DC0009DF8286001EB400030F8020C002EADF854000CBF082010209DF827600EB1083027
:201DE000C0B29DF82560002106B1012140186168401CC2B2505C401E505445F0400525F02F
:201E000041FD169098E0BDF82A100B22BDF82C0000231CF037FD84E1218D08A815AA002361
:201E200000F0D0FD7DE10020169078085FD3B4F828909DF833C0BC4E09211698F2799445FD
:201E400006D1BDF82C303288934201D1B3782BB9491E06F1080600F10100EFD1092825D0E6
:201E600096F806A0BAF1000F1DD0B8F84810484625F05AF810B1AAF10100B071AB483321C5
:201E80000279FF2A02D00288914504D0491E00F12400F5D102E0B079401EB071B079522829
:201EA000A4BF1698B07127F0600720E025F0EAFC16909DF8320020B9208DBDF82C108842C9
:201EC00015D0218D169A08A811F020FF58B1380932BFBDF82A004FF6FE70401C45F0040588
:201EE000ADF8540003E0002027F020071690B8094FEAA71610D394F8473094F846008DF80E
:201F00001130E26B94F948308DF8100004A908A88DF8123004F0D0FA70080DD3218D169B00
:201F200008A815AA00F04EFD169028B112980078012808BF45F01005BDF854104FF6FE7050
:201F4000884204BF0021169179491B310978012927D1628E411C914223D0228D914220D0F6
:201F6000BDF82A10401F88421BDDBDF82C00904217D027F0EDFCA0B10179012918BF0229C0
:201F80000FD101218DF810104088ADF81C0004A820F070FC28B105A820F020FA08B125F06B
:201FA00063FA37F07F0000F0BC801698002800F0B88020891AF0A8FA071C00F0B280616891
:201FC000228926F0AFFD002605969DF822008DF8100016990091B146019504ABCDF80890AE
:201FE000BDF854100393228D237A384617F042F8C0B998F80100002800F09380BDF82A0013
:20200000ADF81A004D468DF81E508DF81D50BDF82C70ADF81870169E8DF81C6006A826F092
:20202000C5FE7EE0384622F053FB7AE05146BDF82A000988814209D022F0EAFA022805D0AF
:202040009DF8250000F0030001286AD19DF8220000284DD012980178042903D19DF83C106E
:20206000022940D00178072905D19DF83C2098F80000042A06D0032953D108A8002115F0FB
:202080002BF84EE04FF480611FF040FE092088F84A0027484178022904BF0021817726F046
:2020A00005FD01460D9826F0F7FB012839D1102025F026FE07460E991298401C8FB302222E
:2020C0003A704378027802EB03227A80807878704A2022F09DFF9DF8260010B91549052016
:2020E0000870394640E5002008A90CF059FE18E094F8460094F8477094F948608DF81000C9
:20210000E26B8DF8117004A98DF8126008A804F0D3F906E0BDF82A0001E0BDF82C0020F0C1
:20212000B1FD18B0BDE8F087B41B002014230020905200205C500020694A2DE9F04FADF153
:202140004C0D10780F91090C80F00D840F999346890B80F0DE830F99890980F013830F991A
:20216000490980F095820F98DFF88091C00980F01E820F98000A06D321F04AFA0F9880F028
:20218000800000F00FBC0F98DFF858A1DFF85881400A80F0AD800F98000B80F08B800F9921
:2021A0009BF80300490B7BD254460F99606AC90B60D20F99207889082ED20F98E188800A6B
:2021C0000DD20F98C00A08D3BBF84800012121F0A5FF0F9880F48060E4E30020E2E3BBF8A8
:2021E0004850ABF848105020A11D22F011FFE6881E2744466089854205D0864204D0204638
:2022000026F013FC00E066817F1E04F11C04F1D10F9880F40070C5E340B301A827F09CFBE1
:2022200027F06EFA49460546032091F8228091F823608DF80D0003A825F01AFE071C15D079
:2022400038690B2100F8011B00F8018B06700126BE7726F02BFC78627D807E7701A83862FB
:202260000023BE763846237009F00EF90F9880F0020097E380B149461431097801290BD1D7
:202280008047A06A00B180479BF800004FF480414FF47A7227F098FB0F9880F4804081E346
:2022A00020B100208BF8030021F0D2FE0F9880F4805077E321F0CCFE4946087A01280BD190
:2022C000497A49B19BF800004FF47A7212FB01F24FF4006127F078FB0F9880F4006061E392
:2022E000784E0020804F0020CC1F00209052002027F018FA4FF6FE71814200F054819BF804
:2023000032008008C0F04F8100252C46284625F01FF8071C19D03879012816D0022814D078
:20232000F879411CF9719BF88B1081420DDABC727C72388824F07AF8388801A925F0E8F9CB
:2023400001A820F04BF825F08FF86D1C332DDDDBA8F11C061E274FF6FE75119436F81C0F8E
:2023600085420CD0307B9BF88B40411C8442317305DA1198B0747074308824F057F87F1EA2
:20238000ECD15446032104F1380010F8047F0FB17F1E0770491EF8D1BC4C332605F10109A5
:2023A00034F8240F81451FD001208DF804006788ADF8107001A820F05DFAA8B1A8F11C0528
:2023C0001E2735F81C0F2188814208D0BDF80610814204D002A8A91C26F05EFA10B12846AE
:2023E00026F023FB7F1EECD1761ED9D1119D2C46284624F0ADFF48B1017931F0040105D154
:20240000807A25F0B0FC08B1641CE4B26D1C332DEEDB25F0B1FB119E5FEA00080ED0354666
:20242000284624F097FD28B1807C25F09CFC08B1761CF6B26D1CEDB2A845F1DCA019C7B2FD
:20244000002F41D0B8001AF05FF81090002808BF119F3BD0BA00FF211BF046FF119E354685
:20246000B44218DD284624F073FF031C10D0187930F004000CD1987A25F075FC011C07D060
:20248000009718885A7A109B1AF09DFD761CF6B26D1C332DE4DBB8F1000F17D0119C20464E
:2024A00024F058FD061C0AD0B07C25F05CFC011C05D00097109B3088727C1AF084FD641C39
:2024C000E4B2A045EBDC01E0119810909BF83000002808BF4FF0620805D026F05FFBC0F13F
:2024E00054005FFA80F80320B8F1600F98FBF0FAA8BF4FF01F0ADDF840904FF6FE7BABF131
:20250000020BB8F1000F0EBF119D2025DDF84480BA45A6BF3C1C45F040055446032014FB9B
:2025200000F0801C8DF8050001A825F0A1FC4E46031C26D01869082104F01F02017045EA22
:2025400002014170801CA4B12246C01E361F16F8041F00F8031F318809124170B17801F051
:20256000070CF178521E01F0070141EA0C118170EDD1A3F802B001209876184608F084FF2A
:2025800000E00120E90906D2641EE4B20CB109EB84093F1BFFB205F040052843B1D0109841
:2025A00008B122F095F80F9880F48070FAE1B44C0925002106264FF00408A778002F3FD0BA
:2025C0007F1EFBB26079A37026F03CF9071C36D05BB9787B022808BF7E7330D07E733868D7
:2025E000407BF02121F0E4FA29E0A3791BB9787B032812D023E023790BB3E078401EC3B29F
:20260000E370E3B99BF82500E0702079401EC3B22371787B032812D123B92046394622F0EF
:2026200097F80CE087F80D8027F067F900F00F00401C38819BF8000020211EF0D5FF0121B0
:202640006D1E04F10804B8D19BF8000001290FD040211FF05BFB494691F82900012811D1B7
:20266000002081F8290018F0F3FA24F0FDFE09E0402122F00DF828B99BF8000040216422D8
:2026800027F0A2F90F9880F040008BE1F0220020102121F0FDFF30B99BF8000010214FF465
:2026A0007A7227F091F9C148DFF80483417808F5C674491ECFB217BB012141700020052163
:2026C00025F096FD071C1BD006253846052125F08FFD0646388978B1401E80B2388158B944
:2026E0007889C00802D3387B23F088FE7D733868407BF02121F05CFA371CE6D100E047708C
:2027000064274FF6FE7600252079A0B1FF2812D0401E2071C0B270B96079032805D1608811
:20272000218802221EF0C0F86079012803D0268066806571A5717F1E04F10804E4D108F16D
:20274000DC040827207A401E2072C0B230B99948214623F0A3FF90B9668025707F1E04F132
:202760000A04EFD1944A0C2112F8080F08B1401E1070491EF8D10F9880F0100012E120F06E
:2027800043FEE4E7202121F083FF28B9DBF81000002808BF012616D027F0E2FA044626F046
:2027A000A3FF4FF47A716043B0FBF1F1DBF81000002808BF002004D088428CBF4FF0FF30D0
:2027C000081A460867D00020042125F011FD071C61D0FF254FF0FF3A06244FF00109384609
:2027E000042125F005FD10903889864204D8801B83B23B8113B14BE000203881BB7B012BE2
:2028000002D17889C0083DD3002B36D08DF804508DF805508DF806A03968086AC97F02AAF6
:2028200012F03AFF4FF00008012808BFC8465FEA08001DD0788A40F08000ADF83600B87B1A
:202840008DF838007889000908D3BDF8360040F48070ADF83600387B8DF83A007B6913B1D2
:20286000187BADF8180001A9002202A803F024FE7C73387B1BF0C8F90AE087F80D9007E022
:20288000B41B00207C733868407BB72121F090F9109F002FA3D10EF083FF9BF800300020D8
:2028A000012125F0A5FC18B1184620211EF09CFE0020042125F09CFCB3B278B15A46078980
:2028C000147825F095FCF8B9BB42AEBF0027FF1ABFB2204627B920211EF086FE00200DE0D4
:2028E0007A00202127F073F827F03AFA044626F0FBFE4FF47A716043B0FBF1F0CBF81000C7
:202900000F9880F020004DE00289BA42D8BF171CD7E727F097F8294C0546201D00680746EC
:2029200098B157F80C1C9BF8000021B94FF400511DF056FF03E04FF400511EF055FE204636
:2029400039460022001D23F08BFB284627F004FA2FB13846FEF792FF384625F0C9FA0F98BC
:2029600080F400501EE01EF011FE071C17D0144920310A78FF2A0FD03C780B46002094423B
:2029800007D0401CC0B2C200D1189A5CFF2AF6D102E0496838468847384625F0A9FA0F9844
:2029A00080F4004013B0BDE8F08FC046045E0020201B0020A53D0200441C0020205900209C
:2029C0001CB302002DE9F04F064693460020ADF13C0DABF80000B06A0993034600788846BD
:2029E00026F092FC48B17089044621F011FE022804BFABF80040B36A01D0002009901878D0
:202A0000C84DDFF82493401E0A2800F20B84DFE810F02F03B3020C049F028D0151010904B6
:202A2000BE00880066000B00BD4C207D012840F0F9835B1CB06913F8015B1F7826F0B8FF09
:202A4000002800F0F7830379002B00F0F383032B80F2F0830E2D1CDCDFB9D04907752DB97E
:202A600001EB85010A6BC261096B0AE001EB85010B6B9A01A2EB8302C2610A6B9101A1EBA3
:202A800082018161012180F8201024F0EDFC002500E001250320B689A47F8DF8190006A80E
:202AA00025F0E6F9071C00F0C58338690C2100F8011B00F8015B04700124BC7725F0F6FFBB
:202AC000786204A9304624F023FE10B17C7704A838627E80BC76384608F0D6FCAAE35C1C4D
:202AE000207820F01F0700F01F00012840F09A83641C04A8214626F08BFF284604A95D30A8
:202B000025F0CAFE002800F08D83002F40F08A830834A2786178207801EB022122F0FAFD65
:202B200088E3688F7189884240F07C835C1C14F8016B04A8214626F06BFF284604A95D3015
:202B400025F0AAFE06F01F0726F01F06002800F07183002E40F06E83780019F0D5FC011C97
:202B600000F0688367B184460834384663782278401E04F1020402EB03222CF8022BF5D1E7
:202B800000910AF012F9084621F0A2FD52E35C789A1C34F07F0704F01F0E40F04B83377F63
:202BA00003201EFB00F0801CC1B2B94240F04283002714F01F0F04BF4FF6FE7C614618D080
:202BC000D9789B7870464D4603EB012C5378117812F802EF01EB03213EF0770340F02A8349
:202BE0002B888B4208BF0EF00707521C401EEDD1BFB960464FF6FE72824212D004F0600229
:202C0000602A0ED04D462A88A30907D2E30902D2904203DD0EE3904203DD0BE39142C0F2FA
:202C20000983B08926F094FE002836D1B0894FF6FF7124F079F9041C14D123F029F9041C2A
:202C400000F0F88200211C221BF04EFBB0894D460E35208028886081AA23A3740222227479
:202C600001216174207C032805DB0220072F2074BCBF7F1CFFB2677400202073A01C25F0A4
:202C800026FB002840F0D682307A002800F0D282B169A01C26F0BCFECCE20021C171017A2B
:202CA000032905DB0221072F0172BCBF7F1CFFB24772BFE2484671890088884240F0B282DD
:202CC000307F022840F0AE82AA4C201D00884FF6FE71814240F0AE82162025F011F8071CB2
:202CE00000F0A88201213970B07900280CBF081C02207870B06A4078B872000902D2B08993
:202D000022F076FAB169B81C26F082FE0020F8742878394620F064F9B089A0808AE2C046CA
:202D200090520020784E0020B24E0020708921F06FFC002840F076825F78B94987B10C2F7A
:202D400003F1020380F276828C463D465A7818786D1E03F1020300EB02202CF8020BF5D1D1
:202D6000484675890488DFF8D892AC4200F0B180B37C002B00F05E823B1C0A974FF0000882
:202D800011D0A74A38464146921E32F8023F9C4206D0401E01F10101F7D104E0D4B6020003
:202DA0000A914FF00108284600211BF079FF00280B907DD0407901287AD10B98807910F045
:202DC000180F75D00B984188384625F049FD10B9B8F1010F6CD109F2AC404FF6FE754FF0A5
:202DE00000080C97B6F80CB008904FF0010A0D95C14611E0B8F1010F08BF4FF0010908D0A1
:202E000026F07BFDC0B290FBF8F101FB08F1A0EB01094FF00008C246089D1E271C3D35F8F5
:202E20001C4F4FF6FE70A04213D0A34511D00C98214625F015FD60B96B7C53B1072B08DA9C
:202E400008F10100BAF1000F5FFA80F801D1C14521DD7F1EE3D1B44D332735F8244F0D9826
:202E6000A0421AD0A34518D00C98214625F0F8FC98B96B7A8BB1072B0FDA287901280CD06F
:202E800002280AD008F10100BAF1000F5FFA80F803D1C14501DC0D9407E07F1EDDD1B8F176
:202EA000000F02D0B9F1000FA4D00D980B994880B37C5B4C581EB074F77C00970A9D01953C
:202EC000029401220392B189B269708917F01EFEB0E1B4890C2F80F2AD818846ADF81040C7
:202EE000BD488DF812700168CDF8148009B104A8884720461EF002FC0C2803D14FF6FE70A2
:202F00001EF0FCFB0C2880F2958109EBC00505F59675686808B121F0DBFB2FB1780019F061
:202F2000F3FA686010B985E1002068606C80C3486F70007828706878002800F07B8168681B
:202F4000002800F077817A00414625F0EBFD71E1307F022840F06681099828B94D46718912
:202F60002888884240F06681099831460BF018FF5FE1C046804F0020B5F84810404622F0C4
:202F8000A1FFA846074608202FB17D781DB90221397007257D70B16A0A79CC788B794D78F3
:202FA00091F802A0CF7904EB02244A7902EB03296A0928BF1020AA0924BF0830C0B235F0BE
:202FC000700340F03781327F904240F0338105F07005680938BF002006D306A8083126F067
:202FE00017FD25F010050820A90907D3B16A091804A8083126F00CFD25F020052046514668
:2030000023F0AEFD08280DDA8D4B410001EBC001C9188879B84240F30D818F71002002E076
:203020003E1B00200420B8F83A10A14219D048B9B189484601222B4610F09AFC28B1F9E088
:20304000201B0020042840F0F58006A804AE009049463A46534601962046029513F004FE13
:20306000E8E0B189484601222B4610F081FCE1E0B5F84810404622F025FF4FF00609041CBF
:2030800003D06078002800F0CD80B06A817847780891C378017900F1050A03EB0120099058
:2030A00040461FF0E9FF9AF8001009185FFA81FAB80928BF4FF00E0937F0780040F0B280FD
:2030C00007F01800182800F0AD80307F814540F0A9804FF00009CDF800900899B0895246A7
:2030E00043461BF051FE032800F09C80002807F078074DD117F0180F18D195F8310028B14C
:20310000B089414601223B4610F032FC09984FF6FE714A463B4610F02BFC002838D14FF61A
:20312000FF70ABF8000039E0F022002047F00107780928BF47F00207B08939461BF0B0FDDB
:2031400090B1817911F0180F0ED0417901290BD154B14088B5F8481022F0B4FE20B143784C
:2031600013B1607898425DDCB089414601223B4610F0FEFB60B94FF6FF70347AABF8000025
:20318000002C0CBF4946B169B089524625F088FABBF800104FF6FF70884243D10120009021
:2031A0000899B089524643461BF0EEFD0998394621F0B6FE698F81422ED1099826F0C8FB05
:2031C00060B10079012818BF022807D1099804A924F09EFA08E0C0469C50002025F066FCF8
:2031E000014604A826F014FC307A012803D1B16906A826F00DFC06A8009004AF0197B06A85
:20320000407840F0300002900999089BB0894A4613F02AFD48460CE0B06A80F805A024F007
:2032200031FB06E04FF00009F4E70999304613F053FF099009980FB0BDE8F08FAA520020B3
:20324000FC1B00202DE9F04F964C04F128000768ADF1540D17B1002087F84500DFF8408230
:20326000002517F148030BD0BF6DD34E73612FB940460068D0F84C058047736958687060B8
:2032800026F0E0FB1290082016F06CF81CF0B8F9464610B1B1A026F05BFD1EF0BBFD0CA8C6
:2032A00026F024F904200CA98DF83000284626F025F9E06325F0B6FE04A826F077F804204A
:2032C00004A98DF81000284626F078F8606325F0B3FE08A826F07AF8042008A98DF820007D
:2032E000284626F07BF8616BA06319B9A3A026F02FFDA06B10B9A6A026F02AFDE06B10B946
:20330000A8A026F025FD3068D0F8E00380473068D0F8180280473068D0F8F0028047D8F8F9
:2033200000002F460726A03001687B5823B118468047D8F80000A030761E07F10407F3D1EB
:20334000D0F8B8028047EB2026F0F2F9A06A2F4670B16846FF2108221AF0C6FFA06A6946F8
:20336000082224F0B5FD04F12806012818BF37686846924A13900CCA391C80E80C0021D1DD
:20338000082019F0C1F85FEA000956D0A9F10206032726F0B2FA06F8020F7F1E4FEA202018
:2033A0007070F6D12020F82706F8020F4946082204F1440089F8077025F0B4FB484621F0AB
:2033C00087F904E004F14400082225F0ABFB012008216A4626F04EFA04F14406002818BFD5
:2033E000092826D124F0E0F980081DD26846FF2108221AF079FF02AFFF21082238461AF044
:2034000073FF0120294608223B4625F00FFF80B938466946082224F05BFD28B9304639460A
:20342000082225F07FFB04E001200821324626F027FAE220314621F0EBFD24F0B5F940087A
:2034400034BF2E1C0126CA4F5520012107F13E0226F010FA18B916B1284623F089FCC54F4E
:20346000E22007F1440124F03BF830461FF0AEF96846294610221AF037FF3846407830F0B5
:20348000010014D1BC4F69461022384624F020FD50B968463946102225F044FB07E0C04602
:2034A00014010020402A0020684623F01FF8622010216A4626F0DEF928B926B162201021BA
:2034C0006A4626F0DDF96846294610221AF00CFF304614F065FC304621F05EFD304614F0B5
:2034E000D5FE1EB12846012122F0F4F9242019F00BF80028206400F09E81E06A216B221D7B
:203500001CF038FED8F80010D1F84C138847216C201D0860E06A216B04F108021CF02AFE57
:2035200010F08CFC216C04F108004860E06A216B04F10C021CF01EFECA4ECB4F216C04F11C
:203540002C092B46D9F800C0307001F1080E04F1300607F110003168119635E052616E647F
:203560006F6D5F736565644175746F6D617469632829206661696C656400C04641455343D0
:20358000434D206F70656E206661696C656400C0414553454342206F70656E206661696C53
:2035A000656400C054524E47206F70656E206661696C656400C046C004540020CCB902002B
:2035C00040F823505B1CDBB2002BF9D07D61CEF80020604604F110021CF0CCFDA34F654E5D
:2035E000B870F08DB880B44831463D703C3126F00FFA04F110023046216C5E4B90F82500E2
:20360000CA60119E787003F14C003168F860D9F8000004F114021CF0ADFD04F1180A944932
:20362000954B0870934A7B62206CBA6004F11403924A03613168D9F80000BA6252461CF05C
:2036400099FD8F4EF071022286F824204FF6FE70B08325F02BFA8B48974906F1140B056062
:20366000584626F0D5F98848FF2138221AF03CFE8648884B8360884AC260854941600570DE
:20368000864B0361864A426188493961854B8361854AC261864B7B61864ABA61DA48DB4B91
:2036A000DB4AFB61DC491061DA4FD16006F13000976014F0B7FE09270BF12C007F1E40F895
:2036C000045BFBD1F07948F2010120F0C1F8F0794FF4004120F0BCF8F079212120F0B8F835
:2036E000F079222120F0B4F8206C119FC0F814A03968D9F8000004F11C021CF03BFDC74EDC
:2037000048F21501307020F0A3F83078382120F09FF8C44BC44AF360C1483261216C7061FC
:2037200002234FF6FE72D9F8000086F8283004F11C038B613968328404F120021CF01AFD77
:20374000BA4AD580D5609570556101261574074615700748167148F202014770384620F046
:2037600077F848F20101384620F072F806E0C046C053002090520020E4B60200384648F231
:20378000040120F065F8AA4FAA483649AA4B3861AA4A4B6008468260226C04F12003D36116
:2037A000119BD9F80000196804F124021CF0E2FCA34B2070A3499870284626F013F8A2491A
:2037C000304626F00FF8A149042026F00BF8A049062026F007F89F49072026F003F89E4904
:2037E000082025F0FFFF98784FF6FE71491C20F02FF89A48AE499A4B48629A4A5A609A4846
:203800009A4A98600B469A621846994A83F84260984EC262994BBE60974A1248984F994E0C
:203820001360994AC76003461F461E61206C7A6104F12406066215F09CFA9548934C057024
:20384000D8F800102570934F6570D1F800616561F089D1F850123D70103080B28847206139
:2038600090BB2BE09C570020984D002084540020BC5800209140010091A60100ED93020022
:203880005C500020385300207C1B0020FC56002039A1000011810200150302002F6002006F
:2038A00061780200E5590200F17D0200198801007973010019780200B8540020D8F800005F
:2038C000D0F84C058047206900908DF804509DF8051005F0030221F003010A438DF8052066
:2038E0009DF8051065F383018DF805109DF8051065F307118DF80510D8F80010D1F800113A
:20390000C9896F461031ADF8061021693B680B607A684A60E061256217F002F8D8F80400E3
:20392000C168087848B9D8F80000D0F85824284601469047D8F80400C16857480570574F86
:203940003D70087830B9D8F80000D0F85824284601469047129826F0FFF911F0DFFA24F00B
:203960009FF8D8F80000D0F8D40090F8430024F0A9F8D8F80000D0F8582429460120904749
:2039800025F022FC4648D8F804700570F868007830B9D8F80000D0F858242846014690474C
:2039A00019F046FA3F48404A07212B4623F020FD18F01EFD21F00EFB10200DF142018DF8B1
:2039C00042005A2021F024FB4FF4FA7010A9ADF84000552021F01CFB03200DF143018DF829
:2039E0004300592021F014FB052024F075FE2F484078022804D14FF40040012116F0E2FF85
:203A000015B0BDE8F08FC046C1670100E9B80000FC5700207DD60100D55C0100C0540020C0
:203A2000AD5402003D6C020091740200E0600020E8570020B5910200179C00007133020071
:203A400000590020F5920200B9920200CD920200E1920200458F02005D8F0200FD2E020050
:203A6000DC56002011450200C5280200414D0200313E02008F440200844E0020413C020066
:203A8000757E010075140200193D0200406500202C6800202E6800203168002024680020BB
:203AA0002D68002038560020D59A020090520020C05300202DE9F04FCC4CCD4DDFF840A3BC
:203AC000DFF840B3DFF840930F46380CADF11C0D80F05E82DFF81C83780880F00482DFF8FF
:203AE0001CA3B80880F0C581B80980F0AD81DFF80893F80B80F04E81BB480668780980F01C
:203B00002981380928BF87F0080080F05583780A80F0BA80F80880F0AD802069F90980F048
:203B20009080380A63D2B80A5CD2C64C380B2BD2F80A27D3142018F0E7FC061C1FD000256B
:203B4000A846207A012813D10096042029464246142321F06BFB58B9206830606068294611
:203B6000142233467060042022F0C6F984F808806D1C0C34032DE4DB304620F0A9FD87F46E
:203B8000806019E3002017E3182018F0BDFC061C25D000252434A846207A012813D1009677
:203BA000062029464246182321F040FB58B92068306160682946182233467061062022F044
:203BC0009BF984F808806D1C0C34032DE4DB3046414618221AF088FB304620F079FD87F45A
:203BE0000060E9E219F07CFB87F40070E4E21CF029FB2078052818D1E07904211EF086F881
:203C0000E07904211CF0ECFD062025F003F8287800F00700022801D025F028FC23F024FCFD
:203C200019F05EFB22F0F4FF01E023F01DFC012023F09EF80320012105F018F987F0800004
:203C4000BAE2A0B117F0DEFF20690668206920F03FFD26615EB1F28802E0F088801AF08053
:203C60003668002EF9D1E079402125F0B0FE87F04000A1E2FF20032121F02CFE25F05EFD09
:203C8000C54901200860FEE7424692F84A00082818BF04285BD124322120742125F0F0FDBF
:203CA000BE4E70683188002435461AE0A30003EBC403C25C32F07F0C11D012F07F02C25431
:203CC000034405D101A8FF210C221AF00DFB01AB012021460C2222F00FF970682988641C39
:203CE000A4B2A142E2DCBC4C4FF0FF084D460026E06995F8211080291FD169798DF80910A6
:203D00002A798DF808206B88ADF806302888ADF8040085F82180297D8DF80C10EA798DF8DF
:203D20000B20AB798DF80A30A86904903146102201AB032022F0E0F8E069761C2435332ED9
:203D4000D7DB00B180470020022121F0C3FD87F4807031E24EB17168087818B1486800785E
:203D60001BF0E2F93668002EF5D125F0DBFC1C34208024F09BFE584608300078012806D1F4
:203D8000444620784FF40061642225F020FE87F0100011E20120022123F0C6FAC4B2002C71
:203DA00034D0E00018F0B0FB5FEA000830D083464FF0010A4D4633262879012818BF022851
:203DC0000DD18DF804A06888ADF8100001A81EF051FD20B102A9584625F01AFE8346761E8E
:203DE00005F12405E8D113E00C5900205C500020F4660020784E002014230020A4520020DA
:203E0000F066002090520020C05300204FF00008B8F1000F12D074B10F204FF6FC768DF886
:203E20000C001F25ADF8046001A922464346AF48009515F075FE404620F04AFC87F4804073
:203E4000BAE1C04648520020207A58B92078062802D1072024F0DEFE50460078012801D1A3
:203E600024F0E6F8E07910211DF0BEFB87F02000A2E1207A10BB2178E07908291CD124F05D
:203E8000DBFA092024F0C6FE4E461C363078052806D0072809D10720012104F0E7FF04E0AB
:203EA000012023F059FB1CF0CDF950460078012816D124F0BDF813E010210FE025F026FC77
:203EC000EF2803DB002023F047FB09E025F01EFC1030C0B225F02CFCE07901211DF084FB6A
:203EE00087F0020068E1012024F094FE55466678287900F007011220012918BF02293DD1BB
:203F0000E6B1032E1AD0012E38D1012936D10A2024F080FE444620784FF480611DF0F6FE83
:203F2000502005A923F0DCFABDF81400A4F84800BDF81400002120F0F1F826E025F05EFA77
:203F4000002818BF032E15D1022024F063FE9C49E06809781EF006FDA97909090ED270B9B8
:203F6000984A5178491CC9B20429517004BF9649E16003E025F0C1FC13F03EF828B1E079C5
:203F800001214FF47A7225F022FD87F0010013E14FF0000B07E1C0467C0520431859002083
:203FA00041468D4823780E784278701E00F0D880401E13D0183800F0F080B93800F0E980B9
:203FC0002A3840F0E28081480168002900F0E88040468847E4E0C046FC560020012A18BFA7
:203FE000022A40F0DD8099F81C004E46072818BF082805D1227A1AB9012104F037FF237865
:20400000032B75D00A2B11D0042B14D00D2B12D00E2B10D00C2B0ED0002B00F0C18022F04E
:20402000F7FDE07910211DF0DFFAB9E0287800F0070001285CD0237A607833BB84F80BB0FD
:204040005846307120F048F8B8B1062024F0E2FD9AF806000AF10406000904D34FF400404F
:20406000012116F0AFFC307800F00700022801D025F0FCF922F0CCFD92E0052024F0CAFD7C
:2040800042F2107023F0C4FF8AE0012819D1E07A401CC0B20428E07204DB4D48007801285E
:2040A0000DD00EE04B4800884FF6FF71814206D003206070012666710423A37201E084F842
:2040C00001B022F003FB21F0A7FC0AF106000078000903D34048007D012861D160780328B0
:2040E0005ED10820012116F06DFC59E0DC510020237A002B32D1E07910211DF075FA1FF072
:20410000EBFF20B320780A2808D1297801F00701022903D02F490822891C0A7003280BD1DF
:2041200022F076FD307F022806D1012022F020FE0220012104F09AFE062024F06BFD2878E7
:2041400000F0070002282BD025F090F928E0052024F060FD012020F0BBFB21E05846FAE7A0
:20416000022B1DD1012A18BF022A19D125F04CFB10B115F091FF98B125F076FB00280CBF98
:204180005846012020F062FF0AE040461BF072FD06E0404616F028FA02E0404610F01CFDF0
:2041A000404623F0A5FEE0791DF0F0F95FEA00087FF4F6AE87F4004007B0BDE8F08FC04670
:2041C000FD5300203053002000F8FF07CC54002085540020C04E0020905200202DE9F04F10
:2041E000C14CDFF808C3277F88465FEAD800ADF1140D80F08A825FEA184006D3DFF8F8B245
:204200004FF6FF7AAAF1010A51E1604600785FEA5831A0F1020080F03081B64DA91D09880A
:204220005FEA182280F0E9805FEA980180F0D0805FEA183028BF88F4006080F045835FEAAB
:20424000D81080F0A180A7685FEA98305CD260695FEAD83138BF0020C0F03683A44928C91E
:204260006A4628C209881180276938B9384624F0ADFE6061C0B997B90B2011E0017BFF297A
:2042800006D031F07F000FD101F07C0104290BDBA06940B9384624F099FE606120B9002062
:2042A00025F04CF92DE0606160784FF4804141F2883225F08CFB217F6069082919D0018865
:2042C000ADF80010017A8DF80810017B491CC9B231F07F07017306D10188427A684623F0BD
:2042E000C7FE606909E0008800210A4621F064FCF7E7017B41F040010173406924F066FE7C
:20430000A06188F48040DFE2DFF8B4B200264FF0030AB14687B96078012E04D04FF400514A
:204320001DF0F4FC05E04FF400514FF47A7225F04EFB88F40050C7E27D68287810B3F028A5
:2043400020DC51464A466B461FF0D0F8D0B1029803889BB984F83A908DF80DA08DF80C901F
:2043600003AB0A20494652461FF060FFDBF8001084F83A9031B12878884703E001880126C3
:20438000491E01803F68C5E71FF016FB07462078BFB1401EC0B22070A0B160784FF48041E0
:2043A00020F076F930B9206924F010FE10B938781CF012FF6078402143F6982225F007FB11
:2043C000207810B90B2025F0B9F888F040007BE2B0F1FF3F18BF00280CD1684600210822C2
:2043E00019F082FF684618F079FA18B1607802211DF0FAF888F0020066E2084600211FF007
:2044000093FA28460678FF24C6B14FF6FF75001D00212B4610F8142F52080BD3C7884FB14F
:20442000BB4207D055B10289BF1ABAB29542C4BF0C1C151C761E01F10101EBD1FF2C19D0C7
:204440002C49A00000EB0410401818300189C088401A80B250B927484470FF2009F0A6F868
:20446000FF2120460A461FF003FF00202149C88023F02EFE88F0800026E2B0F1FF3F18BF8E
:20448000002811D13846401E0AD0801E0CD1A07F022809D10120A077002020F019FA03E060
:2044A000617F002022F06AF888F480500CE260781DF06CF8051C08BF88F4004000F00482EB
:2044C0002F78D32F00F00981207FB84216D00A2F40F0178194F83B002871616A002900F0F5
:2044E0001081A81C88470CE1C05300209152002070B10200E0600020784E0020B648407856
:204500007F1E00F09480BF1E40F0FB80012818BF022840F0F680AF7877B37F1E40F0F18013
:204520006F7860781FB325F0FDF84FF6FE720021824218BF0121081C04D15846408F114690
:20454000814209D010465F46ADF8100004A9A7F83AA0532020F05CFD22F0B8F821F05CFAE4
:204560005946002081F84A0019F08EFAC9E0022140F6B832A177A5E06878002853D125F05E
:2045800073F900210E4603460BF1080023621F460160002F43D1002B37D0002E1F4634D096
:2045A000B146C54823F0F0FB01280BD08A48008E4FF6FF7181420BD03988884208D01AE0E5
:2045C000E0560020BC4807F10C0124F065F990B1BBF83E003989884201D1824501D1FB786E
:2045E0004BB19BF836007979884209D17A48B979807B884204D0384621F012FB761EF6B2FB
:20460000BF69B9F10109CCD1236AE26A002AABD0184631469047E06A002872D1A4E7BF698F
:20462000761CF6B2B5E7002020F010FD69E0012818BF022865D16F7894F841003FB194F88E
:204640004010491CC9B2884284F8401042DB607F401E04D0401E3AD0401E1ED051E024F06D
:20466000CDFE98B994F8420020B1A06A002848D0804746E0002102200F468DF808000246DB
:20468000ADF80070684624F019F813E0012025F0C1F8014604F0EAFB33E0AB2000216A4681
:2046A0001EF006FCCDF808D004208DF80C0002A812F0F0F960784FF480511DF027FB607810
:2046C00041F288324FF4805125F081F919E021F0C1FA16E001200021DCE7E88948F20101DD
:2046E000401A0BD0401E05D0801E0AD1284618F0BDFE06E0284616F0C1F802E0284617F03E
:2047000059FD284623F0F4FBD1E660784FB17F1E00F0D480FF1E00F0C780BF1E00F0BB8007
:20472000D0E094F83B00C10880F09B80810878D20009C0F0C7800620207725F065F8002884
:204740006BD01FF039F9E568071C66D068684078800837D33878032100226B461EF0C6FEA4
:2047600028B968684078410830D20E201BE002980188B52912DAB421018060784FF47A7212
:204780004FF4005125F023F95148416829B10078FF2814BF3878FF208847E5686868407853
:2047A000400803D2092024F0C9FE0AE0092003228DF80C0003AB00218DF80D200A201FF055
:2047C00035FDE5686868407841087BD341490E6826B9800821D375E09052002038781CF0CD
:2047E000FBFC002600B101260325301C02D00E2024F0A4FE0C2020706078402143F69822B2
:2048000025F0E5F80A208DF80D5003AB00212A468DF80C001FF00AFD54E00E2024F08EFEB2
:2048200050E0042294F83C00227740084AD394F83E70002F38D160460078012818BF0228A2
:2048400040D1012504F11C000021E57019F04CFD0320207728461FF08BF8284624F0B1F863
:2048600030E004F11C00052594F83C10057089080ED394F83E1059B90121E1700422002188
:2048800019F032FD257700201FF072F80220E5E7284600210CE0002184F83A10217732226F
:2048A000042125F094F80DE023F032FF0420012104F0DCFA06E0C0467050002001200146BD
:2048C00021F05CFE88F0040005B0BDE8F08FC046DC560020005700202DE9F04FDFF814B356
:2048E000C34C01214FF0E047ADF12C0DDBF804002569C06808931F400170C84807924FF06A
:20490000000101704FF0020000EA020008BF002840F0F482DFF80893DFF8088311464FF4F5
:2049200080301E4600270840374008BF002832D100204FF4003110EA060701EA020108BF3B
:2049400000290ED137464FF48001384001EA020108BF002900F0C682002028711BF076FD49
:20496000C0E22871EB2021F011FA4A460020414610700878862801D121F070FA25F062F834
:20498000E1690A68002313710968E16125F0E4F923F074FFA6E20020DBF80070287107F10D
:2049A000B8000168DFF880A20F782FB951460F7817B1D0F89404804721F036FA81275646DC
:2049C0009A4937709A4D0860FF232B702778A7700021A1812069DBF80050007A4A460E463E
:2049E000801E81B2D5F800011670C0890A918842C0F26C82E1690831096804F118000160E2
:204A00000426A6810A98DBF80060657EA17EE37E04F11902C01E80B206F1B80C0A9005EBA8
:204A2000012051786081C1F30119DCF80010237109780692002908BFB9F1020F00F04682E9
:204A4000B9F1020F00F3428219B110F0070F00F03D82667800F00705AD1E022D08BF002E8C
:204A600000F0348231B141460978862902D1002D40F02C82001300F00200022864DA354334
:204A80005AD1DCF81C0090F88300022851D0E1690C31097805A801700527A78124F0D2FF46
:204AA000454606462878862840D1DBF80000403001680F6837B9D0F80C058047DBF800003A
:204AC000006C07689DF9140025F000F87877DBF80000016C096800228A77006C9DF914105B
:204AE0000068C177304625F037F92679678924F0A9FF41460A7807F01007862A15D1BB4D5B
:204B000005F11E031A88521C1A8087220A7025F023F9E879B04206D11FB900201AF050FE06
:204B200007E01B20FAE7E920F8E70646304625F013F923F0A3FECBE141460878862803D1BE
:204B400021F08CF9A77866788FB186B9012F00F0BD816089022F03D110F0070F40F0B6817A
:204B6000032F05D100F00701032901D0AEE16089010980F0AB81011301F00201022902DA0B
:204B8000810A80F0A38106994978C1F38108B8F1010F4FEAA111099100F09881012900F0F8
:204BA0009581B9F1020F14DA00F00701012918BF03290ED1B8F1000F0BD1099F002F00F0D7
:204BC000858159460968AC3109680F78002F00F07D81BD49B9F1020F0ED0099E11F8087006
:204BE0008A5DB918CFB256B3C10928D3BF1E13E040650020140100200A46099908EB0207F6
:204C0000891809793A795218C109D7B212D2099958EA010613D0BF1CFFB210E0F05800206B
:204C20002E680020316800202C680020106800209D430020099958EA010608BF02270A9A3A
:204C4000C0F30020391A60718A42C0F23F81DBF800601146C91B091888B2D6F85012208185
:204C6000743080B2884700286678606100F02E810021742219F038FB0020E07062891EB904
:204C8000C14902F020000870BF48617906784FF0000C002E30D000292ED102F0070003285C
:204CA00008D0012828D1DBF80000D0F8D40090F882600EB3DBF80400406906781EB124F07F
:204CC000D9F9FE2815D0DBF80000D0F84C02804750B9DBF80000D0F84402804720B96289D2
:204CE000617994F803C007E00420E0706289617901E00420E07084466569268905F1740362
:204D000005F17400AB65069B686093F801902E812089C9F3011A0029A5F85C001878AA8188
:204D200000F078004AEA00004CEA000028744FF0FF06AE730CBF2079002085F83A8085F868
:204D40004900099885F83000A089002FA0EB010086B2A68100F0B580E169E78068463A4675
:204D60008919083116F0DAFABF19B8B2A0812846017C4FEAA90212F0030F02F003076D4689
:204D800001F0400843D0BAF1020F4FF0000301D1C9090BD29DF801209DF8001001EB0221DE
:204DA000A0F844100DF10205A0F84210804EB0F84410B6F842208A4203D04FF6FF728A421D
:204DC00023D1032F14D06A78297801EB022189B24186B6F84020AD1C01208A4214D04FF648
:204DE000FF728A4218BF181C0EE0C0464C56002060692946323024F00BFE60693736314651
:204E0000323023F049FD08350346002B56D00698407886111ED06169BAF1020F03D0087C48
:204E2000C00903D309E058EA070306D16A782878AD1C00EB0220A1F84200032E05D06878AE
:204E40002A7802EB00220A8504E060692946283024F0DEFD59460968AC310A6860891678D9
:204E600086B1BAF1020F0DDA00F00702012A18BF032A0BD162692FB94E4BB2F842201B8859
:204E800093421BD100F00702032A05D0012A18D1886A90F88200A0B1D1F89C1160698847E7
:204EA00078B90020069FE070B97866697878C1F3011100F078000843307402E01BF0C6FAF2
:204EC00006E00DF041FB03E0D0BE020023F086FF24F0B8FDE1690A68002313710968E161C9
:204EE00024F03AFF079A089F202100201140384008BF002930D023F089FC2DE02E4991F95D
:204F00000000002803DD91F90000401E08702B4991F90000002803DD91F90000401E0870C3
:204F2000114600201E464FF080770840374008BF00280DD0224991F90000002803DD91F94E
:204F40000000401E08701F480121017023F0C2FE002028711BF07AFA184A92F90000A8B130
:204F6000079B089F02214FF0E0401940384008BF002914D092F90000002810DCDBF800004F
:204F8000D0F84C0580470AE02E680020DBF800700D480021D7F85824017008469047DBF824
:204FA0000400C06800210BB00170BDE8F08FC0460454002046540020F3580020F258002047
:204FC000F4580020F1580020EE580020964A2DE9F04FADF13C0D00240A918E23099001214F
:204FE000101D01708046D47240215171502593712046D0730021D171DFF838B21172A0215A
:2050000091729089917340F430509081204611681074874C85485572084084F832304CF27D
:205020001011014300200C909BF80000116058B90C981DF0CBFB94F83200000910D30C9875
:2050400008A98DF8200008E094F83200000907D301200DF121018DF8210052201FF0D8FF32
:2050600013F087FE23F0E2FDDFF818A30B90002840F0C7800FF09EF800280B9040F0B6802C
:205080000C9804F1240674210D903246212024F0F1FB002857D10D9921207422334624F008
:2050A000C5F800284FD1608F4FF6FE7181424AD001200D9094F84A00082806D0042804D0D1
:2050C00011F0F8FB0C980D903DE0DDF8349042200DF122018DF822901FF09AFF06F12F015C
:2050E00043201FF095FF06F12C0147201FF090FF06F11C014A201FF08BFF06F11A014B20ED
:205100001FF086FF06F1240128461FF081FF06F1160153201FF07CFF06F12D0154201FF02F
:2051200077FF06F11801E1201FF072FF94F83200000938BFDDF8309052200DF122018DF8FD
:2051400022901FF065FF0C9D18E00B9151E00C9AA80000EBC50029460C23814609EB07005E
:205160000090012020F062F830B917F80900FF2804BF002007F809006D1CADB2BAF8000067
:20518000DAF80470A842E2DC10F0B0FF9748001D006800B180471EF053F80D98F0B124F0E3
:2051A000C1FAABF81C0028B998F8000000F0F80088F800008E48401C0078022818BF0120D0
:2051C00003D1002184F84A1003208BF8010039360BF11400314624F01BFC01E009200B9097
:2051E0000B9F81480021002F4180AED001277E480B9794F83C10814601208840CBF80C00C6
:2052000097E00EF0D7FF11F055FB04F124022120742124F035FB02A8FF210C2219F064F860
:205220000C9D564610E0C046F06600200000FFFF784E00205C500020294601200C2202ABA2
:2052400020F05AFE6D1CADB23088A842F4DC02A8FF21102219F048F80C9D032029461022DA
:2052600002AB20F049FE6D1C332DF6DB5F48006800B180470020ADF808004FF4A17017F0C1
:2052800043F9071C12D0FF214FF4A17219F02CF8384602A9022223F045FC42204FF4A171D2
:2052A0003A4624F0EDFA38461FF012FA00200C99ADF81000062202A819F016F8142017F03C
:2052C00023F9061C1BD0AF480C300768A7B103270225A8B202A90622801923F023FCAD1D98
:2052E0007F1EF6D104A93046022223F01BFC4C201421324624F0C4FA30461FF0E9F918204F
:2053000017F002F9071C10D00C9D1822294618F0EBFF0620294618223B4620F0EDFD6D1C71
:20532000032DF6DB38461FF0D3F91EF0B5FA2E4881460B98934D012868D12D4E737804F1D9
:2053400024070BB3012B08D0022B0ED198F8000000F0F80040F0020005E098F8000000F045
:20536000F80040F0010088F80000874822F00CFD002808BF00200ED0042103208BF80A10C8
:2053800009E0C0461859002098F8001001F0F80188F8001002208BF8010024F0AEFA09996F
:2053A000B36B00F07F000818CBF80C306430022180B20C90FF2020F08DFA01201AF090F952
:2053C0004FF6FE706087461CE0870020A4F8486020F03CFB0A9801280CD002A80021082223
:2053E00018F082FF02A806E010580020105700209052002000201FF02BFA212074213A46D9
:2054000024F03EFA0020022120F064FAE8680B9C80B9122017F078F80646002EEE606DD0B1
:205420004FF6FE70B61F0327411C26F8060F7F1E7180FAD1002C61D106AB4C200021022211
:2054400023F0F4FE002852D1BDF8180000284ED004284CDA182017F057F803274FF0020896
:2054600000244FF6FE7A0646EB681FFA88F14C2006221B1923F0DAFE78BBE868015B8A45B9
:205480002BD056B30096201841880022182306201FF0CCFE3069EA6800F2E933336110195F
:2054A000418805F13402880000EBC100E9681350081973694188880000EBC1008018E9682C
:2054C00043600819418818223346062020F014FD30460021182218F007FF7F1E04F10604CA
:2054E00008F10608C0D116B130461FF0F1F82B4B7120002108224C3323F098FE23F07EFFD5
:2055000018B10120A8700027EF702048C9F80C001F48C9F8100021F0CBFE1F481D49086087
:20552000DBF8100050B10BF11004076820681FF0CFF838460028CBF81000F6D109984FF684
:20554000FF71814217D0012000278BF800000BF1090201468BF80970852024F08BF90BF1E3
:20556000090428B9852039460122234623F05EFE0C9823F06BF822F097F90B980FB0BDE85B
:20558000F08FC04638520020B8540020D9140100CD940200845600201199010090520020B8
:2055A0002DE9F04F0746C44C97F824000026ADF1840D0128ADF83C6006D197F82810207891
:2055C000012902D148B9B2E2207830B9387D022800F0AD82032800F0AA826078CB4D01285A
:2055E0000ED1C94821790078884209D097F83800E32840F09C8223F001FB012800F08D82AF
:205600004FF4FA60F860E86924F040F840B9E869F96824F0ADF905F1980024F035FA02E0E0
:20562000F9680818F86097F8250002288DF8300003D008B9F86A0D9005E00DA807F11801C0
:20564000082223F073FC0CA80DF13E010FAA1AF07FF858B913A807F13401042223F066FCDF
:20566000BDF83C000DF13E011DF084FB2078012800F0BB80002840F05A82397D31F0010078
:2056800018BF042940F0538268463146242224F041FA384669460AF0FDFE97F81780BDF84A
:2056A000000010F0070F06D000F0070002280CBF14270B2700E00F279DF81900C01987B2CF
:2056C000384624F025FA5FEA000900F0308204466946022223F02AFCBDF80000A41C10F05A
:2056E000070F18D000F00700022823D102200DF1080A8DF82400082251460AA823F016FC24
:2057000020460822514623F011FC9DF81000083404F8010B0EE00DF1040A8DF824600AA8A4
:205720000422514623F002FC20460422514623F0FDFB241D05A92046042223F0F7FB9DF858
:205740001800241D04F8010B9DF8190004F8010B9DF8190068B10799002900F0E881024601
:20576000204623F0E3FB9DF819002418079824F00FF908A92046022223F0D8FB9DF8220055
:2057800004F8020FB14CE068FFB248B90C2024F0BFF9E06000B186604770C0F8049015E03E
:2057A000E4680834206820B100F1080420680028FAD10C2024F0ACF9206038B183680BB19B
:2057C000866020684770C0F804902068011C00F0AE8181F8008009A808F0DCF8A8693221BA
:2057E00024F0C6F805F174009FE197F83800E32805D1206918B18047002800F0988197F86C
:205800003800E2280DD0E3280BD0E02809D0E12807D097F82800012803D0387D032840F0FF
:205820008681BDF83C0000280CBFB0460DF13E0831462822684624F06DF90AA8314603220C
:2058400024F068F997F838C0DFF8E8B2BCF1E30F23D097F8250010F0070F16D000F00700A2
:2058600002281AD102A807F11801082223F05EFB97F830009DF8283097F838C08DF81000FA
:2058800003F0F80040F0020005E0F86A9DF82830019003F0F8008DF82800BCF1E30F0DD012
:2058A00097F829109DF82800C90000F0F70001F00801014306E0C046E85700209DF828105D
:2058C00041F008018DF8281097F826309DF829209DF82800190102F0EF0200F0CF0001F0A4
:2058E0003001022B42F0200241EA00018DF829209DF82A208DF8281002F0F8008DF82A00C7
:2059000006DA8BB116E0C046B44E0020984D002097F8273043B1012B0CD19DF8290000F0B7
:20592000FC0040F0040003E09DF8290000F0F8008DF82900387D032807D1FB6B9DF8290024
:20594000099340F008008DF829009DF829009DF8282097F84030800100F4006100F4F86009
:20596000084302F030019DF82820014302F008009DF82820084302F007017A6B8DF818C03A
:20598000084305923043ADF8000023B18DF8193007F141000790BBF83A00ADF8200097F959
:2059A0001500082805DC10F16D0FB8BF6FF06C0000E00820BB7D6E3040B2002B4FEA60006E
:2059C0000CBF311C022197F8179040EA81108DF82200BDF8000010F0070F06D000F007015B
:2059E00002290CBF14270B2700E00F27800A06D29DF81800E22808BF8DF8196001E03F1D13
:205A0000BFB29DF819003F18BFB2384624F080F85FEA000A00F08B8006466946022223F015
:205A200085FABDF80000B61C10F0070F10D000F00700022812D102A93046082223F076FA98
:205A40009DF81000083606F8010B07E06058002001A93046042223F069FA361D05A9304667
:205A6000042223F063FA9DF81800361D06F8010B9DF8190006F8010B9DF8190060B107996F
:205A8000002954D00246304623F050FA9DF819003618079823F07CFF08A93046022223F017
:205AA00045FA9DF8220006F8020FBDF80000800A04D3701C09A9042223F038FA85F85B70DA
:205AC000F220BBF84870E378C5F85CA0A9F10C0685F85500E188A5F85670002B85F85A6089
:205AE00006BF0F204FF6FD71022085F85400B8F1000FA5F84C100AD098F80100800906D38E
:205B000005F1580008F10B0122F056FE66E60CA819F05CFAA5F8580060E623F05DFE286A32
:205B2000C82123F025FF05F1BC0023F0ADFF21B0BDE8F08F784E00202DE9F04FC548C74A86
:205B40000178C5481170C64D4170C6495C306861ADF12C0D086004F05FF8C749C248C44E60
:205B6000DFF810B3091D0A91C04982468946E7E0480AC0F09980C1489BF8004000780128CB
:205B800068D023F053FE011C00F08A808A7B96F8248086F82420778F8A7B08698BF800203A
:205BA0008A898B7B7287012200920022019201220292002203920493427805924068002348
:205BC0002122069001200790F2200AF073F88BF80040C04986F824801E200870DAF808003F
:205BE000778750B3A4490C681434276857B102693969914205D007F114042768002FF7D119
:205C000000E097B9DAF80C707FB1786823F0C0FE0021DAF80C000A9F4160386823F0B8FE73
:205C20000020CAF80C00DAF8080023F0B1FE0020CAF808002068CAF80800D9F8181023F092
:205C4000F5FD68B30846322123F092FEC14823F01BFF25E0B9F85810778F7187C04999F807
:205C60005A008BF8000096F8248086F82400012300930022019202930392049099F85B005D
:205C80000590D9F85C0004232122069001200790F2200AF00FF88BF8004086F82480778794
:205CA000296921F480712961D9F80C008A0A3AD3071C34D0C468F968A1421FD839468F6840
:205CC00000B3D0F80880814210D00246434601E01A469368B3B1AAB19942F9D198689060BD
:205CE000184623F055FED9F80C000BE0AC48006823F04EFE4046C9F80C0003E0F968091BA2
:205D0000F960BF68002FD5D14CB1D9F81C1030B10846214623F02CFEBA4823F0B5FE296907
:205D200021F400712961C80A05D31DF0FBFA296921F480612961080924BF21F008012961FD
:205D4000E8684FF0FF3123F0FFFF0028F8D028781BF01CFC041C00F02F81217828789239FC
:205D600000F08E8038396BD0491E65D0173904D0491E5DD0891E56D085E094F840004430B3
:205D800080B223F0C5FE071C7DD004F10408381D0C22414623F0CAF820693861207D38753F
:205DA00094F915007875A07DB875E07D0A2208F11401F87507F1180023F0B8F8608C78844B
:205DC00094F8240087F8250094F8250087F8260094F8260087F8270094F8270087F8280067
:205DE00094F8280087F82900E06AF86294F8300087F83000606B786394F8380087F8380017
:205E0000E06BF86394F8402004F1410107F1410087F8402023F08AF83846FFF7C1FB38465E
:205E200023F0B6FD2FE0A188A01D12F061FB2AE0201D1FF077FF26E0CD210022032305E05C
:205E4000002108AA08238DF82010C1211AF058FE19E0C046402A002034370020346800207D
:205E6000104F00208051002060580020984D0020784E00208454002068580020E8570020B8
:205E8000201D14F0F1FD20784FF00108712823DC71284FD065280FDC652866D0801F75D084
:205EA00042387FD018386ED0401E69D0401E012878D9801E5CD06FE0663853D0801E4BD089
:205EC000801E03286ED9001F40D0401E3AD0401E34D061E08057002091280FDC912861D0F3
:205EE000723802285ED9C01E20D0401E1AD0401E58D0C01E56D0801E54D04DE092380DD061
:205F0000C01E01284ED9303806284BD91B3849D0801E012846D9093844D03DE0E76A002F55
:205F200040D035E0A768002F3CD031E06769002F38D02DE0E768002F34D029E0E768002FC4
:205F400030D025E0E768002F2CD021E0E768002F28D01DE00C4E0020E768002F22D017E06D
:205F6000E44D0020E768EFB112E0E768D7B10FE02746786908B11EF0ABFBFF6997B107E0D7
:205F800067697FB104E0676967B101E0A7684FB138461EF09DFB05E04FF0000805E0C0460A
:205FA000A44D0020204621F0A3FFB8F1010F03D014B1204621F09CFF29698808FFF4D8ADBA
:205FC00008A80021082218F08FF908A816F086FC23F08AFB4FF4FA674FF47A71B1FBF0F008
:205FE00081B207FB01F023F0ABFEFF2003211FF071FC23F0A3FB024901200860FEE7C04690
:206000007C052043304E00202DE9FC47D44C0F460546F80B80F006826078DFF85883B90F98
:2060200080F0AA81B90880F09D81F90A80F00281390B80F0CC80380907D2F80FC0F0288205
:2060400027F0804719F0E0FD22E223F0FBFC814621F09EFF002800F0B480082023F0B0FBC7
:20606000002840F0AE80802023F0AAFB002840F0A880684615F06EFB012803D100980028E9
:2060800000F09F8094F83102002840F09A8000250126E8B223F048F848B1837A3BB18672AD
:2060A00090F9090006FA00F0C0B21FF0E3F96D1C032DEED3032084F8200004F5C47023F088
:2060C000B9FC484623F048FED34800252A460168056050F8081CD14940F8085C04F15C0033
:2060E00021F0A6FE40460068006B8047A168401A010BA06AC1F1FF3282422CBF08444FF035
:20610000FF30A06294F82C0020B12069A16AB1EBC02F25D921F04CFF294600B13146081C91
:206120001BD0BF4840F6090101804580417B06F00F0221F00F010A434273017B05F00F037E
:2061400021F00F0143EA010202732946416023F0A5F9418811F4406FFBD084F82C60A56261
:206160001DF07AFACE4829460560022021F0F6FB022020F013F9112012F0BCFE207818B9FC
:206180006068483023F074FCC648007810B90E2012F0B0FE94F82D0020B184F82D50052067
:2061A00020F0FCF8C048606284F82050B4F9B000B4F9B210884214BF0220072017F00CF868
:2061C00002E0484623F0C8FD27F008073AE720B1042020F0E3F80020607065681FF02EF95D
:2061E00038B12846ED696FF4807100224FF00073A847E06858B140460068006B8047E26820
:206200006168801AC860000BC8600026E660A74904F15C00002221F00BFE0221D4F89C004C
:2062200084F8201018B104F1DC0023F029FC27F4006707E723F006FC064621F0A9FED4F88B
:2062400094100028894600F08480002900F081809749042504F15C00002284F8205021F01C
:20626000E7FD304623F078FD04F5C47023F0E2FB40460068006B8047E0604FF0010884F8FB
:206280000180284620F0A2F8D9F810006060D9F81000416AC90803D3036A294600229847B4
:2062A00040461AF009FF606880F81580606812F03FFF6568D5F808A040F60A02D01F56465A
:2062C00000F1010C00E01E46736833B119888A4203D0884218BF8C45F5D100217160727B66
:2062E00008F00F0322F00F0213437373D9F80C201288904224D06046904221D02B8E03B300
:20630000696305F13002518095F83C0001F00F0320F00F00034385F83C3095F83D0008F0DC
:206320000F0320F00F00034385F83D307260707B01F00F0520F00F0045EA0001717300E027
:20634000E160504623F0AAF85146404621F006FB02E0304623F000FD27F4806798E0C0469A
:20636000A04300200CF046F8D4F89C0008B927F002078DE08C0100104E4A116841F08001CA
:20638000116020B1042020F009F80020607023F059FB8246D8F85400016804208847D0B166
:2063A000287DC0B1A068B0B18146D8F800002E69006B8047A0EB09002861000B2861B0425B
:2063C00002D280194008286140F6C41181422CBFB0F5967F2961504623F0BEFC1FF02EF8EA
:2063E00080B1EE6928466FF4807100224FF00073B047D4F89400002808BF47F0020701D028
:2064000019F002FC2846AD6900214FF080630A46A84727F000573BE014100440A1160200C5
:206420000467002023F00EFBD4F8AC6066B306F1280106C90A234FF0E0450B40154008BFDD
:20644000002B21D106F1280191E8000306F1280595E8060006F1280322EA090221EA08018F
:2064600083E8060023F078FCB16879B1B9F1000F08BFB8F1000F09D03069B6F93010B5682B
:206480004B464246A84701E023F066FC27F4804727B104F1DC00394623F0F2FABDE8FC876D
:2064A0000000046062BE0200A5690100E95F0100717F0200CC2108402DE9F04FADF1840D53
:2064C0001B91CB491C923CC9064610A83CC00EC980E80E0000248DF84240317F8DF8434019
:2064E000B28D8DF84D40D6F828C0ADF844400F46ADF85A20F2898DF854706046ADF84A207F
:20650000027802F00303022B8DF8402000F3C38123461D93401C1F9353083CD202F00C0E24
:20652000BEF10C0F0CD053093CBF10F8013B8DF84230BEF1080F04BF01238DF84C3001D0A4
:206540008DF84C40BEF10C0F0AD0737903F00303012B0CD142F00C0273898DF8402004E093
:2065600045780378801C03EB0523ADF84430530911D245780378801C03EB0523ADF84630D4
:2065800003784578801C03EB0523ADF8483010F8013B8DF8433010F8013B32F07F058DF849
:2065A00055301ED0037833F003058DF8413040F06E8103F0030EBEF1030F00F0688113F00C
:2065C000030F00F101000ED010F8013B02F00305022D8DF8573004BF10F8013B8DF858304C
:2065E00001E08DF841401490A0EB0C003F1AFFB2B942C0F24C81C91B8DF85470C8B28DF8C9
:206600004D00074300F04781D00907D370891DF0FFFF002840F03F819DF8402002F00C0069
:206620002146001F08BF01211E91910933D301211F9180B3B28923F075F8904202D1F08DBA
:20664000000A0ED223F06EF8904222D0F08D01460B0A38BF101C07D39DF8402002F0030C47
:206660002EE07089ADF85A20804623F05BF8BDF85A10884205D040461BF0DBFD002800F089
:206680000A818648026810A940469047002840F002819DF84020F08D02F0030C01460B0A77
:2066A0000ED2D3090CD39DF8413013F0030F07D102F00C030C2B03D0082B1CBF01231D935F
:2066C000DFF8E081BCF1020F00F0C280BCF1010F00F0908012F0030F40F0DD80704A92F8F0
:2066E0002F20012A03D1B779002F00F0D4809DF8542002231A92040A9DF84250BDF846B0EF
:20670000BDF848A09DF855E09DF857C0DDF850908DF86430B2899DF84370ADF85C2034D2EE
:206720001E9F40461A30046897B91D9F1FB1104610A915F08EFB1F9800901C9F0197B07C21
:206740001B9A0290F37C17A910A813F089F8A2E0307C002C8DF8560000F09D8022F0E2FF52
:20676000BDF85C20904240F0968030791F9F00901C9D01971B9A02951D9B039196F8300032
:2067800010A9049017A8A04785E0ADF830008DF820308DF8227034798DF833407189ADF89C
:2067A00018108DF835E08DF82350ADF826B0ADF828A0CDF82C90307C8DF836C0B27C8DF8DC
:2067C000320096F830308DF83420354C8DF83730B4F8481096F83270ADF824101A998DF80E
:2067E000387006A8ADF82A1006F0E4FC53E0C0461CBC02001D9FB58937B1000A04D228464B
:2068000010A915F026FBB5899DF85400B6791030C0B221F075FA071C3DD07D810220387019
:206820003E737C709DF854203A7207F110057D609DF84000800928BF01247C721499786837
:2068400022F070F94046007839461CF0C9FB22E09DF8417040462230B189036817F0030F92
:2068600010D110A807901048ADF8181006A91FF015FF80B1062141730068407B21461DF04E
:2068800097F908E03BB110A82246984703E08DF84D408DF8544021B0BDE8F08F805600209C
:2068A000784E002086540020132E02002DE9F04FD24CDFF84C93DFF84C83080CADF1140D13
:2068C000019180F0D4810846400838BF0020C0F0D881676823F044FA054622F005FF4FF4E7
:2068E0007A764FF6FF726843B0FBF6F081B267B13B887888CB1A9BB2984210DDC01A824211
:20690000C8BF82B2FF68002FF2D14FF6FF70904200F095802078012123F059F88FE0B8791A
:2069200002287FD023F01CFA054622F0DDFE97F838204946684301F10A03B0FBF6F0388014
